:1000000090C0AAC0A9C0A8C0A7C0A6C0A5C0A4C0CF
:10001000A3C0A2C0A1C016C19FC09EC09DC0D2C136
:10002000F7C1808386898C8F9295989C9FA2A5A802
:10003000ABAEB0B3B6B9BCBFC1C4C7C9CCCED1D3C7
:10004000D5D8DADCDEE0E2E4E6E8EAECEDEFF0F267
:10005000F3F5F6F7F8F9FAFBFCFCFDFEFEFFFFFFF7
:10006000FFFFFFFFFFFFFFFFFEFEFDFCFCFBFAF9B9
:10007000F8F7F6F5F3F2F0EFEDECEAE8E6E4E2E0AB
:10008000DEDCDAD8D5D3D1CECCC9C7C4C1BFBCB9A8
:10009000B6B3B0AEABA8A5A29F9C9895928F8C8961
:1000A0008683807C797673706D6A6763605D5A576A
:1000B00054514F4C494643403E3B383633312E2C49
:1000C0002A272523211F1D1B1917151312100F0D89
:1000D0000C0A0908070605040303020101000000D9
:1000E00000000000000000000101020303040506F7
:1000F0000708090A0C0D0F1012131517191B1D1FE5
:10010000212325272A2C2E313336383B3E404346C7
:10011000494C4F5154575A5D6063676A6D707376EE
:10012000797C11241FBECFE5D2E0DEBFCDBF10E049
:10013000A0E6B0E0E8E1F6E002C005900D92A63638
:10014000B107D9F720E0A6E6B0E001C01D92AF39B3
:10015000B207E1F71FD25EC253CF8091980084307E
:1001600021F1B0F0853041F080E0E5D08091980039
:100170008F5F80939800089580916A0090916B0042
:10018000892FD9D0809198008F5F8093980008952F
:10019000E0919800F0E0E05AFF4F8081CCD0809150
:1001A00098008F5F80939800089584B195B19093E3
:1001B0006B0080936A0080916A0090916B00BBD0C5
:1001C000809198008F5F809398000895CF93DF937C
:1001D000DFEFD80FD03118F0DF91CF910895C82FFD
:1001E000BAD080939800C250D1110FC0F5CF809142
:1001F00098008430B9F0909198009F5F9093980098
:100200008FEF8C0FCC2341F3C82F8091980084305E
:1002100070F7D09198009FD0ED2FF0E0E05AFF4F9B
:100220008083E9CF98D0881F8827881F80936C002F
:10023000E2CFADD0811101C00895E0919B00F09113
:100240009C0009941F920F920FB60F9211244F93A6
:100250005F936F937F938F939F93AF93BF93EF932E
:10026000FF9380916C0081113CC0409160005091DF
:100270006100609162007091630080916D009091C7
:100280006E00A0916F00B0917000840F951FA61FA3
:10029000B71F80936D0090936E00A0936F00B09392
:1002A000700080916D0090916E00A0916F00B091F0
:1002B00070008B2F9927AA27BB27FC01EE5DFF4F0B
:1002C000E491E6BFFF91EF91BF91AF919F918F9124
:1002D0007F916F915F914F910F900FBE0F901F9084
:1002E000189580E886BFEECF80919B0090919C008E
:1002F000892B09F0759B08959CCF10928300109272
:1003000084001092710010927200809397008AB35B
:1003100080658ABBDC9ADE9AD69888EA8DB980EF30
:100320008EB90895209172009091710081E0291397
:10033000089580E00895209172002F5F2F709091B2
:1003400071002917E1F3E22FF0E0ED58FF4F8083B1
:1003500020937200089590918400809183009817F3
:10036000D1F3809183008F5F8F7080938300E09141
:100370008300F0E0EB57FF4F8081089520918400C7
:100380009091830081E02913089580E00895909171
:10039000840080918300981799F090918400809157
:1003A0008300981730F08091840090918300891B1E
:1003B00008958091840090918300805F891B089547
:1003C00080E008951F920F920FB60F9211248F9321
:1003D0001092960010929500D69802C0CE9902C055
:1003E000CC99FCCFCE9B0AC088EA8DB980EF8EB93C
:1003F0008F910F900FBE0F901F90189588EF8DB9B9
:1004000080EF8EB98F910F900FBE0F901F901895AF
:100410001F920F920FB60F9211242F933F934F9379
:100420005F936F937F938F939F93AF93BF93CF937C
:10043000DF93EF93FF938091950090919600823027
:10044000910509F47EC090F18430910509F466C0ED
:1004500008F49BC00597B9F4809184008F5F8F707A
:1004600080938400E09184008FB1F0E0EB57FF4F60
:10047000808384E090E090939600809395001FB86D
:10048000D69A8EE78EB9FF91EF91DF91CF91BF9110
:10049000AF919F918F917F916F915F914F913F911C
:1004A0002F910F900FBE0F901F901895009709F491
:1004B00053C0019741F7C0919B00D0919C002097B9
:1004C00049F09091840080918300981719F05FDFC4
:1004D000FE010995E0919900F0919A00309709F09A
:1004E00009959091720080917100981709F180919F
:1004F00071008F5F8F7080937100E0917100F0E068
:10050000ED58FF4F80818FB982E090E09093960084
:1005100080939500D69A80E78EB9B5CF85E090E0BC
:100520009093960080939500D69880E78EB9ABCFD4
:10053000D6981FB88EE78EB988EA8DB980E78EB954
:10054000A2CF83E090E09093960080939500D69898
:100550001FB88EE78EB997CF8FB1882331F08FB156
:100560008695909197008913E7CFE0919D00F091D7
:100570009E00309709F00995789B7BCF81E090E051
:1005800090939600809395007ACF8FB1882309F4D9
:1005900092CFD2CF80E1B1DE86EE90E090939C00C6
:1005A00080939B008DEA90E090939A00809399004D
:1005B000BA9A83EC80BF81E083BF89BF7894809131
:1005C0006D0090916E00A0916F00B09170008B2F24
:1005D0009927AA27BB27FC01EE5DFF4F84918695E2
:1005E000869586BF86B1876086B98AB3837F8ABBCA
:1005F0008BB3837F8BBB80E187B9359A379A369A64
:1006000080919B0090919C000097F1F3759BFCCF2B
:0806100010DEF6CFF894FFCFD5
:0606180057519D0700018F
:00000001FF
